:060000000A128A11FC2F18
:100F06008316031385018601870188018312031363
:100F16008614881487150611081186110810071102
:100F26008817881B972F9B2F8312031307149E2F56
:100F36008312031307107F30F200D430F1003130F2
:100F4600F000F00BA42FF10BA42FF20BA42FAB2F64
:100F56008312031386108810871106150619B42FFD
:100F6600B82F831203130815BB2F8312031308111E
:100F760007140718BF2FC32F831203138615C62F16
:100F86008312031386118619C92FCD2F83120313DB
:100F96000715D02F831203130711081088137F300B
:100FA600F200D430F1003130F000F00BD82FF10B05
:100FB600D82FF20BD82FDF2F831203138614881035
:100FC60087150611861107110710081588170814CA
:100FD6007F30F200D430F1003130F000F00BF12F09
:100FE600F10BF12FF20BF12FF82F892F0A128A112C
:0A0FF600002883010A128A11832FDC
:02400E007A3FF7
:00000001FF
